{
  "_format": "hh-sol-artifact-1",
  "contractName": "AssuranceVol",
  "sourceName": "contracts/AssuranceVol.sol",
  "abi": [
    {
      "inputs": [
        {
          "internalType": "uint256",
          "name": "_tauxConversion",
          "type": "uint256"
        }
      ],
      "stateMutability": "nonpayable",
      "type": "constructor"
    },
    {
      "anonymous": false,
      "inputs": [
        {
          "indexed": true,
          "internalType": "uint256",
          "name": "id",
          "type": "uint256"
        }
      ],
      "name": "AssuranceActivee",
      "type": "event"
    },
    {
      "anonymous": false,
      "inputs": [
        {
          "indexed": true,
          "internalType": "uint256",
          "name": "id",
          "type": "uint256"
        },
        {
          "indexed": true,
          "internalType": "address",
          "name": "acheteur",
          "type": "address"
        },
        {
          "indexed": false,
          "internalType": "uint256",
          "name": "prixEnWei",
          "type": "uint256"
        },
        {
          "indexed": false,
          "internalType": "uint256",
          "name": "dureeVol",
          "type": "uint256"
        }
      ],
      "name": "BilletSouscrit",
      "type": "event"
    },
    {
      "anonymous": false,
      "inputs": [
        {
          "indexed": false,
          "internalType": "uint256",
          "name": "montant",
          "type": "uint256"
        }
      ],
      "name": "FondsRetires",
      "type": "event"
    },
    {
      "anonymous": false,
      "inputs": [
        {
          "indexed": true,
          "internalType": "uint256",
          "name": "id",
          "type": "uint256"
        },
        {
          "indexed": false,
          "internalType": "uint256",
          "name": "montantRembourse",
          "type": "uint256"
        }
      ],
      "name": "RemboursementEffectue",
      "type": "event"
    },
    {
      "inputs": [
        {
          "internalType": "uint256",
          "name": "",
          "type": "uint256"
        }
      ],
      "name": "billets",
      "outputs": [
        {
          "internalType": "uint256",
          "name": "id",
          "type": "uint256"
        },
        {
          "internalType": "address payable",
          "name": "acheteur",
          "type": "address"
        },
        {
          "internalType": "uint256",
          "name": "prixEnWei",
          "type": "uint256"
        },
        {
          "internalType": "uint256",
          "name": "dureeVol",
          "type": "uint256"
        },
        {
          "internalType": "enum AssuranceVol.StatutBillet",
          "name": "statut",
          "type": "uint8"
        }
      ],
      "stateMutability": "view",
      "type": "function"
    },
    {
      "inputs": [],
      "name": "compteurBillets",
      "outputs": [
        {
          "internalType": "uint256",
          "name": "",
          "type": "uint256"
        }
      ],
      "stateMutability": "view",
      "type": "function"
    },
    {
      "inputs": [
        {
          "internalType": "uint256",
          "name": "_billetId",
          "type": "uint256"
        },
        {
          "internalType": "uint256",
          "name": "_retardEnHeures",
          "type": "uint256"
        }
      ],
      "name": "constaterRetard",
      "outputs": [],
      "stateMutability": "nonpayable",
      "type": "function"
    },
    {
      "inputs": [
        {
          "internalType": "uint256",
          "name": "_billetId",
          "type": "uint256"
        }
      ],
      "name": "getBillet",
      "outputs": [
        {
          "components": [
            {
              "internalType": "uint256",
              "name": "id",
              "type": "uint256"
            },
            {
              "internalType": "address payable",
              "name": "acheteur",
              "type": "address"
            },
            {
              "internalType": "uint256",
              "name": "prixEnWei",
              "type": "uint256"
            },
            {
              "internalType": "uint256",
              "name": "dureeVol",
              "type": "uint256"
            },
            {
              "internalType": "enum AssuranceVol.StatutBillet",
              "name": "statut",
              "type": "uint8"
            }
          ],
          "internalType": "struct AssuranceVol.Billet",
          "name": "",
          "type": "tuple"
        }
      ],
      "stateMutability": "view",
      "type": "function"
    },
    {
      "inputs": [
        {
          "internalType": "uint256",
          "name": "_billetId",
          "type": "uint256"
        }
      ],
      "name": "payerBillet",
      "outputs": [],
      "stateMutability": "payable",
      "type": "function"
    },
    {
      "inputs": [],
      "name": "proprietaire",
      "outputs": [
        {
          "internalType": "address payable",
          "name": "",
          "type": "address"
        }
      ],
      "stateMutability": "view",
      "type": "function"
    },
    {
      "inputs": [
        {
          "internalType": "uint256",
          "name": "_montant",
          "type": "uint256"
        }
      ],
      "name": "retirerFonds",
      "outputs": [],
      "stateMutability": "nonpayable",
      "type": "function"
    },
    {
      "inputs": [
        {
          "internalType": "uint256",
          "name": "_nouveauTaux",
          "type": "uint256"
        }
      ],
      "name": "setTauxConversion",
      "outputs": [],
      "stateMutability": "nonpayable",
      "type": "function"
    },
    {
      "inputs": [
        {
          "internalType": "uint256",
          "name": "_dureeVol",
          "type": "uint256"
        },
        {
          "internalType": "uint256",
          "name": "_prixEnEur",
          "type": "uint256"
        }
      ],
      "name": "souscrireAssurance",
      "outputs": [],
      "stateMutability": "nonpayable",
      "type": "function"
    },
    {
      "inputs": [],
      "name": "tauxConversionEthEur",
      "outputs": [
        {
          "internalType": "uint256",
          "name": "",
          "type": "uint256"
        }
      ],
      "stateMutability": "view",
      "type": "function"
    }
  ],
  "bytecode": "0x6080604052348015600f57600080fd5b50604051610d31380380610d31833981016040819052602c916045565b600080546001600160a01b03191633179055600155605d565b600060208284031215605657600080fd5b5051919050565b610cc58061006c6000396000f3fe6080604052600436106100915760003560e01c80637a2bccf3116100595780637a2bccf31461015957806381835d1714610186578063bcfdd265146101a6578063eb058097146101b9578063fb09f9a71461022257600080fd5b806319f14c2f146100965780631f872c7b146100b857806356476334146100e15780637281645a1461010157806379583ee514610121575b600080fd5b3480156100a257600080fd5b506100b66100b1366004610adf565b610238565b005b3480156100c457600080fd5b506100ce60025481565b6040519081526020015b60405180910390f35b3480156100ed57600080fd5b506100b66100fc366004610af8565b610270565b34801561010d57600080fd5b506100b661011c366004610adf565b6104ed565b34801561012d57600080fd5b50600054610141906001600160a01b031681565b6040516001600160a01b0390911681526020016100d8565b34801561016557600080fd5b50610179610174366004610adf565b610637565b6040516100d89190610b52565b34801561019257600080fd5b506100b66101a1366004610af8565b6106c1565b6100b66101b4366004610adf565b6108a5565b3480156101c557600080fd5b506102116101d4366004610adf565b60036020819052600091825260409091208054600182015460028301549383015460049093015491936001600160a01b0390911692909160ff1685565b6040516100d8959493929190610b9b565b34801561022e57600080fd5b506100ce60015481565b6000546001600160a01b0316331461026b5760405162461bcd60e51b815260040161026290610bd6565b60405180910390fd5b600155565b6000546001600160a01b0316331461029a5760405162461bcd60e51b815260040161026290610bd6565b600082815260036020526040812080549091036102f35760405162461bcd60e51b815260206004820152601760248201527621b2903134b63632ba103713b2bc34b9ba32903830b99760491b6044820152606401610262565b6001600482015460ff16600381111561030e5761030e610b1a565b1461036e5760405162461bcd60e51b815260206004820152602a60248201527f4c276173737572616e63652064652063652062696c6c6574206e27657374207060448201526930b99030b1ba34bb329760b11b6064820152608401610262565b80600301548211156104db5760006002826002015461038d9190610c37565b9050804710156103ee5760405162461bcd60e51b815260206004820152602660248201527f466f6e647320696e737566666973616e747320706f75722072656d626f75727360448201526532b6b2b73a1760d11b6064820152608401610262565b60048201805460ff1916600317905560018201546040516000916001600160a01b03169083908381818185875af1925050503d806000811461044c576040519150601f19603f3d011682016040523d82523d6000602084013e610451565b606091505b505090508061049a5760405162461bcd60e51b81526020600482015260156024820152742932b6b137bab939b2b6b2b73a1032b1b437bab29760591b6044820152606401610262565b847f9017beb454b06873d606177e9711074c8b3deecbd1a59084dda83c2010d1f0a8836040516104cc91815260200190565b60405180910390a25050505050565b600401805460ff191660021790555050565b6000546001600160a01b031633146105175760405162461bcd60e51b815260040161026290610bd6565b8047101561055d5760405162461bcd60e51b81526020600482015260136024820152722337b732399034b739bab33334b9b0b73a399760691b6044820152606401610262565b600080546040516001600160a01b039091169083908381818185875af1925050503d80600081146105aa576040519150601f19603f3d011682016040523d82523d6000602084013e6105af565b606091505b50509050806106005760405162461bcd60e51b815260206004820152601b60248201527f456368656320647520726574726169742064657320666f6e64732e00000000006044820152606401610262565b6040518281527f459801b35410870900bf6ea9f4fb214bea00498073dcc2dd4b38c19c48ffc2c49060200160405180910390a15050565b61063f610a97565b600082815260036020818152604092839020835160a0810185528154815260018201546001600160a01b0316928101929092526002810154938201939093528282015460608201526004830154909291608084019160ff16908111156106a7576106a7610b1a565b60038111156106b8576106b8610b1a565b90525092915050565b600082116107265760405162461bcd60e51b815260206004820152602c60248201527f4c6120647572656520647520766f6c20646f697420657472652073757065726960448201526b32bab9329030903d32b9379760a11b6064820152608401610262565b6000811161078c5760405162461bcd60e51b815260206004820152602d60248201527f4c6520707269782064752062696c6c657420646f69742065747265207375706560448201526c3934b2bab91030903d32b9379760991b6064820152608401610262565b6002805490600061079c83610c59565b90915550506002546001546000906107bc84670de0b6b3a7640000610c72565b6107c69190610c37565b6040805160a081018252848152336020808301918252828401858152606084018a81526000608086018181528a8252600394859052969020855181559351600180860180546001600160a01b0319166001600160a01b039093169290921790915591516002850155518383015593516004830180549697509395929490939260ff191691849081111561085b5761085b610b1a565b021790555050604080518381526020810187905233925084917f6def19cf723ac169ae6ef5385f23bacf67623bc721f8b4c70a767e0ad7da7c91910160405180910390a350505050565b600081815260036020526040812080549091036108fe5760405162461bcd60e51b815260206004820152601760248201527621b2903134b63632ba103713b2bc34b9ba32903830b99760491b6044820152606401610262565b60018101546001600160a01b0316331461096b5760405162461bcd60e51b815260206004820152602860248201527f566f7573206e276574657320706173206c276163686574657572206465206365604482015267103134b63632ba1760c11b6064820152608401610262565b6000600482015460ff16600381111561098657610986610b1a565b146109e75760405162461bcd60e51b815260206004820152602b60248201527f4c652062696c6c6574206e276573742070617320656e20617474656e7465206460448201526a32903830b4b2b6b2b73a1760a91b6064820152608401610262565b80600201543414610a595760405162461bcd60e51b815260206004820152603660248201527f4c65206d6f6e74616e7420656e766f7965206e6520636f72726573706f6e64206044820152753830b99030ba90383934bc10323a903134b63632ba1760511b6064820152608401610262565b60048101805460ff1916600117905560405182907fc90609a39140f791e188b18ff3081d7d5858064369c6539d70a0bedbbbe4850290600090a25050565b6040518060a001604052806000815260200160006001600160a01b03168152602001600081526020016000815260200160006003811115610ada57610ada610b1a565b905290565b600060208284031215610af157600080fd5b5035919050565b60008060408385031215610b0b57600080fd5b50508035926020909101359150565b634e487b7160e01b600052602160045260246000fd5b60048110610b4e57634e487b7160e01b600052602160045260246000fd5b9052565b815181526020808301516001600160a01b031690820152604080830151908201526060808301519082015260808083015160a0830191610b9490840182610b30565b5092915050565b8581526001600160a01b0385166020820152604081018490526060810183905260a08101610bcc6080830184610b30565b9695505050505050565b6020808252602b908201527f416374696f6e2072657365727665652061752070726f7072696574616972652060408201526a323a9031b7b73a3930ba1760a91b606082015260800190565b634e487b7160e01b600052601160045260246000fd5b600082610c5457634e487b7160e01b600052601260045260246000fd5b500490565b600060018201610c6b57610c6b610c21565b5060010190565b8082028115828204841417610c8957610c89610c21565b9291505056fea2646970667358221220ca70f194cc3c0b8ae22013981ebe453d0570118af6749f983aafa5aea66de7d464736f6c634300081c0033",
  "linkReferences": {},
  "deployedLinkReferences": {}
}